{
  "contractName": "CallerContract",
  "abi": [
    {
      "anonymous": false,
      "inputs": [
        {
          "indexed": false,
          "internalType": "address",
          "name": "oracleAddress",
          "type": "address"
        }
      ],
      "name": "NewOracleAddressEvent",
      "type": "event"
    },
    {
      "anonymous": false,
      "inputs": [
        {
          "indexed": true,
          "internalType": "address",
          "name": "previousOwner",
          "type": "address"
        },
        {
          "indexed": true,
          "internalType": "address",
          "name": "newOwner",
          "type": "address"
        }
      ],
      "name": "OwnershipTransferred",
      "type": "event"
    },
    {
      "anonymous": false,
      "inputs": [
        {
          "indexed": false,
          "internalType": "uint256",
          "name": "ethPrice",
          "type": "uint256"
        },
        {
          "indexed": false,
          "internalType": "uint256",
          "name": "id",
          "type": "uint256"
        }
      ],
      "name": "PriceUpdatedEvent",
      "type": "event"
    },
    {
      "anonymous": false,
      "inputs": [
        {
          "indexed": false,
          "internalType": "uint256",
          "name": "id",
          "type": "uint256"
        }
      ],
      "name": "ReceivedNewRequestIdEvent",
      "type": "event"
    },
    {
      "inputs": [],
      "name": "owner",
      "outputs": [
        {
          "internalType": "address",
          "name": "",
          "type": "address"
        }
      ],
      "stateMutability": "view",
      "type": "function",
      "constant": true
    },
    {
      "inputs": [],
      "name": "renounceOwnership",
      "outputs": [],
      "stateMutability": "nonpayable",
      "type": "function"
    },
    {
      "inputs": [
        {
          "internalType": "address",
          "name": "newOwner",
          "type": "address"
        }
      ],
      "name": "transferOwnership",
      "outputs": [],
      "stateMutability": "nonpayable",
      "type": "function"
    },
    {
      "inputs": [
        {
          "internalType": "address",
          "name": "_oracleInstanceAddress",
          "type": "address"
        }
      ],
      "name": "setOracleInstanceAddress",
      "outputs": [],
      "stateMutability": "nonpayable",
      "type": "function"
    },
    {
      "inputs": [],
      "name": "updateEthPrice",
      "outputs": [],
      "stateMutability": "nonpayable",
      "type": "function"
    },
    {
      "inputs": [
        {
          "internalType": "uint256",
          "name": "_ethPrice",
          "type": "uint256"
        },
        {
          "internalType": "uint256",
          "name": "_id",
          "type": "uint256"
        }
      ],
      "name": "callback",
      "outputs": [],
      "stateMutability": "nonpayable",
      "type": "function"
    }
  ],
  "bytecode": "0x608060405234801561001057600080fd5b5061002d61002261003260201b60201c565b61003a60201b60201c565b6100fe565b600033905090565b60008060009054906101000a900473ffffffffffffffffffffffffffffffffffffffff169050816000806101000a81548173ffffffffffffffffffffffffffffffffffffffff021916908373ffffffffffffffffffffffffffffffffffffffff1602179055508173ffffffffffffffffffffffffffffffffffffffff168173ffffffffffffffffffffffffffffffffffffffff167f8be0079c531659141344cd1fd0a4f28419497f9722a3daafe3b4186f6b6457e060405160405180910390a35050565b610b6f8061010d6000396000f3fe608060405234801561001057600080fd5b50600436106100625760003560e01c806323c7e4a214610067578063715018a6146100715780638da5cb5b1461007b578063b5d73ba414610099578063e9e17a9e146100b5578063f2fde38b146100d1575b600080fd5b61006f6100ed565b005b6100796101f9565b005b610083610281565b6040516100909190610782565b60405180910390f35b6100b360048036038101906100ae91906107d8565b6102aa565b005b6100cf60048036038101906100ca9190610844565b610401565b005b6100eb60048036038101906100e69190610844565b61057d565b005b6000600460009054906101000a900473ffffffffffffffffffffffffffffffffffffffff1673ffffffffffffffffffffffffffffffffffffffff166330c0b9ec6040518163ffffffff1660e01b8152600401602060405180830381600087803b15801561015957600080fd5b505af115801561016d573d6000803e3d6000fd5b505050506040513d601f19601f820116820180604052508101906101919190610886565b905060016003600083815260200190815260200160002060006101000a81548160ff0219169083151502179055507f3ed150819af981e387450beb90ec379b8b322150dbb299d492b108c59a623e4b816040516101ee91906108c2565b60405180910390a150565b610201610675565b73ffffffffffffffffffffffffffffffffffffffff1661021f610281565b73ffffffffffffffffffffffffffffffffffffffff1614610275576040517f08c379a000000000000000000000000000000000000000000000000000000000815260040161026c9061093a565b60405180910390fd5b61027f600061067d565b565b60008060009054906101000a900473ffffffffffffffffffffffffffffffffffffffff16905090565b600260009054906101000a900473ffffffffffffffffffffffffffffffffffffffff1673ffffffffffffffffffffffffffffffffffffffff163373ffffffffffffffffffffffffffffffffffffffff161461033a576040517f08c379a0000000000000000000000000000000000000000000000000000000008152600401610331906109cc565b60405180910390fd5b6003600082815260200190815260200160002060009054906101000a900460ff1661039a576040517f08c379a000000000000000000000000000000000000000000000000000000000815260040161039190610a5e565b60405180910390fd5b816001819055506003600082815260200190815260200160002060006101000a81549060ff02191690557f6b69e4f2aedf7e65a79ecaf16e8869b2b99c87e341f2c51286bfd4a7fc3b996982826040516103f5929190610a7e565b60405180910390a15050565b610409610675565b73ffffffffffffffffffffffffffffffffffffffff16610427610281565b73ffffffffffffffffffffffffffffffffffffffff161461047d576040517f08c379a00000000000000000000000000000000000000000000000000000000081526004016104749061093a565b60405180910390fd5b80600260006101000a81548173ffffffffffffffffffffffffffffffffffffffff021916908373ffffffffffffffffffffffffffffffffffffffff160217905550600260009054906101000a900473ffffffffffffffffffffffffffffffffffffffff16600460006101000a81548173ffffffffffffffffffffffffffffffffffffffff021916908373ffffffffffffffffffffffffffffffffffffffff1602179055507f51de03c3383d5c428fe200dd5e9561e7018b49e1e836059d2c7e66bc37f09e01600260009054906101000a900473ffffffffffffffffffffffffffffffffffffffff166040516105729190610782565b60405180910390a150565b610585610675565b73ffffffffffffffffffffffffffffffffffffffff166105a3610281565b73ffffffffffffffffffffffffffffffffffffffff16146105f9576040517f08c379a00000000000000000000000000000000000000000000000000000000081526004016105f09061093a565b60405180910390fd5b600073ffffffffffffffffffffffffffffffffffffffff168173ffffffffffffffffffffffffffffffffffffffff161415610669576040517f08c379a000000000000000000000000000000000000000000000000000000000815260040161066090610b19565b60405180910390fd5b6106728161067d565b50565b600033905090565b60008060009054906101000a900473ffffffffffffffffffffffffffffffffffffffff169050816000806101000a81548173ffffffffffffffffffffffffffffffffffffffff021916908373ffffffffffffffffffffffffffffffffffffffff1602179055508173ffffffffffffffffffffffffffffffffffffffff168173ffffffffffffffffffffffffffffffffffffffff167f8be0079c531659141344cd1fd0a4f28419497f9722a3daafe3b4186f6b6457e060405160405180910390a35050565b600073ffffffffffffffffffffffffffffffffffffffff82169050919050565b600061076c82610741565b9050919050565b61077c81610761565b82525050565b60006020820190506107976000830184610773565b92915050565b600080fd5b6000819050919050565b6107b5816107a2565b81146107c057600080fd5b50565b6000813590506107d2816107ac565b92915050565b600080604083850312156107ef576107ee61079d565b5b60006107fd858286016107c3565b925050602061080e858286016107c3565b9150509250929050565b61082181610761565b811461082c57600080fd5b50565b60008135905061083e81610818565b92915050565b60006020828403121561085a5761085961079d565b5b60006108688482850161082f565b91505092915050565b600081519050610880816107ac565b92915050565b60006020828403121561089c5761089b61079d565b5b60006108aa84828501610871565b91505092915050565b6108bc816107a2565b82525050565b60006020820190506108d760008301846108b3565b92915050565b600082825260208201905092915050565b7f4f776e61626c653a2063616c6c6572206973206e6f7420746865206f776e6572600082015250565b60006109246020836108dd565b915061092f826108ee565b602082019050919050565b6000602082019050818103600083015261095381610917565b9050919050565b7f596f7520617265206e6f7420617574686f72697a656420746f2063616c6c207460008201527f6869732066756e6374696f6e2e00000000000000000000000000000000000000602082015250565b60006109b6602d836108dd565b91506109c18261095a565b604082019050919050565b600060208201905081810360008301526109e5816109a9565b9050919050565b7f546869732072657175657374206973206e6f7420696e206d792070656e64696e60008201527f67206c6973742e00000000000000000000000000000000000000000000000000602082015250565b6000610a486027836108dd565b9150610a53826109ec565b604082019050919050565b60006020820190508181036000830152610a7781610a3b565b9050919050565b6000604082019050610a9360008301856108b3565b610aa060208301846108b3565b9392505050565b7f4f776e61626c653a206e6577206f776e657220697320746865207a65726f206160008201527f6464726573730000000000000000000000000000000000000000000000000000602082015250565b6000610b036026836108dd565b9150610b0e82610aa7565b604082019050919050565b60006020820190508181036000830152610b3281610af6565b905091905056fea2646970667358221220820e08f57e25349127fd0efe7fcd003b8d236ad7e8b0384aeb996b8541f41c3e64736f6c63430008090033",
  "immutableReferences": {},
  "source": "// SPDX-License-Identifier: MIT\r\n\r\npragma solidity ^0.8.0;\r\n\r\nimport \"./EthPriceOracleInterface.sol\";\r\nimport \"openzeppelin-solidity/contracts/access/Ownable.sol\";\r\n\r\ncontract CallerContract is Ownable {\r\n    uint256 private ethPrice;\r\n    address private oracleAddress;\r\n    mapping(uint256 => bool) myRequests;\r\n\r\n    EthPriceOracleInterface private oracleInstance;\r\n\r\n    event NewOracleAddressEvent(address oracleAddress);\r\n    event ReceivedNewRequestIdEvent(uint256 id);\r\n    event PriceUpdatedEvent(uint256 ethPrice, uint256 id);\r\n\r\n    function setOracleInstanceAddress(address _oracleInstanceAddress)\r\n        public\r\n        onlyOwner\r\n    {\r\n        oracleAddress = _oracleInstanceAddress;\r\n        oracleInstance = EthPriceOracleInterface(oracleAddress);\r\n        emit NewOracleAddressEvent(oracleAddress);\r\n    }\r\n\r\n    function updateEthPrice() public {\r\n        uint256 id = oracleInstance.getLatestEthPrice();\r\n        myRequests[id] = true;\r\n        emit ReceivedNewRequestIdEvent(id);\r\n    }\r\n\r\n    function callback(uint256 _ethPrice, uint256 _id) public onlyOracle {\r\n        require(myRequests[_id], \"This request is not in my pending list.\");\r\n        ethPrice = _ethPrice;\r\n        delete myRequests[_id];\r\n        emit PriceUpdatedEvent(_ethPrice, _id);\r\n    }\r\n\r\n    modifier onlyOracle() {\r\n        require(\r\n            msg.sender == oracleAddress,\r\n            \"You are not authorized to call this function.\"\r\n        );\r\n        _;\r\n    }\r\n}\r\n",
  "sourcePath": "C:\\Users\\Nico\\Projects\\eth\\eth-price-oracle\\caller\\contracts\\CallerContract.sol",
  "compiler": {
    "name": "solc",
    "version": "0.8.9+commit.e5eed63a.Emscripten.clang"
  },
  "schemaVersion": "3.4.3",
  "updatedAt": "2021-10-11T17:28:53.377Z",
  "networkType": "ethereum",
  "devdoc": {
    "kind": "dev",
    "methods": {
      "owner()": {
        "details": "Returns the address of the current owner."
      },
      "renounceOwnership()": {
        "details": "Leaves the contract without owner. It will not be possible to call `onlyOwner` functions anymore. Can only be called by the current owner. NOTE: Renouncing ownership will leave the contract without an owner, thereby removing any functionality that is only available to the owner."
      },
      "transferOwnership(address)": {
        "details": "Transfers ownership of the contract to a new account (`newOwner`). Can only be called by the current owner."
      }
    },
    "version": 1
  },
  "userdoc": {
    "kind": "user",
    "methods": {},
    "version": 1
  }
}