{
  "contractName": "EthPriceOracle",
  "abi": [
    {
      "inputs": [
        {
          "internalType": "address",
          "name": "_owner",
          "type": "address"
        }
      ],
      "stateMutability": "nonpayable",
      "type": "constructor"
    },
    {
      "anonymous": false,
      "inputs": [
        {
          "indexed": false,
          "internalType": "address",
          "name": "oracleAddress",
          "type": "address"
        }
      ],
      "name": "AddOracleEvent",
      "type": "event"
    },
    {
      "anonymous": false,
      "inputs": [
        {
          "indexed": false,
          "internalType": "address",
          "name": "callerAddress",
          "type": "address"
        },
        {
          "indexed": false,
          "internalType": "uint256",
          "name": "id",
          "type": "uint256"
        }
      ],
      "name": "GetLatestEthPriceEvent",
      "type": "event"
    },
    {
      "anonymous": false,
      "inputs": [
        {
          "indexed": false,
          "internalType": "address",
          "name": "oracleAddress",
          "type": "address"
        }
      ],
      "name": "RemoveOracleEvent",
      "type": "event"
    },
    {
      "anonymous": false,
      "inputs": [
        {
          "indexed": true,
          "internalType": "bytes32",
          "name": "role",
          "type": "bytes32"
        },
        {
          "indexed": true,
          "internalType": "bytes32",
          "name": "previousAdminRole",
          "type": "bytes32"
        },
        {
          "indexed": true,
          "internalType": "bytes32",
          "name": "newAdminRole",
          "type": "bytes32"
        }
      ],
      "name": "RoleAdminChanged",
      "type": "event"
    },
    {
      "anonymous": false,
      "inputs": [
        {
          "indexed": true,
          "internalType": "bytes32",
          "name": "role",
          "type": "bytes32"
        },
        {
          "indexed": true,
          "internalType": "address",
          "name": "account",
          "type": "address"
        },
        {
          "indexed": true,
          "internalType": "address",
          "name": "sender",
          "type": "address"
        }
      ],
      "name": "RoleGranted",
      "type": "event"
    },
    {
      "anonymous": false,
      "inputs": [
        {
          "indexed": true,
          "internalType": "bytes32",
          "name": "role",
          "type": "bytes32"
        },
        {
          "indexed": true,
          "internalType": "address",
          "name": "account",
          "type": "address"
        },
        {
          "indexed": true,
          "internalType": "address",
          "name": "sender",
          "type": "address"
        }
      ],
      "name": "RoleRevoked",
      "type": "event"
    },
    {
      "anonymous": false,
      "inputs": [
        {
          "indexed": false,
          "internalType": "uint256",
          "name": "ethPrice",
          "type": "uint256"
        },
        {
          "indexed": false,
          "internalType": "address",
          "name": "callerAddress",
          "type": "address"
        }
      ],
      "name": "SetLatestEthPriceEvent",
      "type": "event"
    },
    {
      "anonymous": false,
      "inputs": [
        {
          "indexed": false,
          "internalType": "uint256",
          "name": "threshold",
          "type": "uint256"
        }
      ],
      "name": "SetThresholdEvent",
      "type": "event"
    },
    {
      "inputs": [],
      "name": "DEFAULT_ADMIN_ROLE",
      "outputs": [
        {
          "internalType": "bytes32",
          "name": "",
          "type": "bytes32"
        }
      ],
      "stateMutability": "view",
      "type": "function",
      "constant": true
    },
    {
      "inputs": [],
      "name": "ORACLE_ROLE",
      "outputs": [
        {
          "internalType": "bytes32",
          "name": "",
          "type": "bytes32"
        }
      ],
      "stateMutability": "view",
      "type": "function",
      "constant": true
    },
    {
      "inputs": [],
      "name": "OWNER_ROLE",
      "outputs": [
        {
          "internalType": "bytes32",
          "name": "",
          "type": "bytes32"
        }
      ],
      "stateMutability": "view",
      "type": "function",
      "constant": true
    },
    {
      "inputs": [
        {
          "internalType": "bytes32",
          "name": "role",
          "type": "bytes32"
        }
      ],
      "name": "getRoleAdmin",
      "outputs": [
        {
          "internalType": "bytes32",
          "name": "",
          "type": "bytes32"
        }
      ],
      "stateMutability": "view",
      "type": "function",
      "constant": true
    },
    {
      "inputs": [
        {
          "internalType": "bytes32",
          "name": "role",
          "type": "bytes32"
        },
        {
          "internalType": "address",
          "name": "account",
          "type": "address"
        }
      ],
      "name": "grantRole",
      "outputs": [],
      "stateMutability": "nonpayable",
      "type": "function"
    },
    {
      "inputs": [
        {
          "internalType": "bytes32",
          "name": "role",
          "type": "bytes32"
        },
        {
          "internalType": "address",
          "name": "account",
          "type": "address"
        }
      ],
      "name": "hasRole",
      "outputs": [
        {
          "internalType": "bool",
          "name": "",
          "type": "bool"
        }
      ],
      "stateMutability": "view",
      "type": "function",
      "constant": true
    },
    {
      "inputs": [
        {
          "internalType": "bytes32",
          "name": "role",
          "type": "bytes32"
        },
        {
          "internalType": "address",
          "name": "account",
          "type": "address"
        }
      ],
      "name": "renounceRole",
      "outputs": [],
      "stateMutability": "nonpayable",
      "type": "function"
    },
    {
      "inputs": [
        {
          "internalType": "uint256",
          "name": "",
          "type": "uint256"
        },
        {
          "internalType": "uint256",
          "name": "",
          "type": "uint256"
        }
      ],
      "name": "requestIdToResponse",
      "outputs": [
        {
          "internalType": "address",
          "name": "oracleAddress",
          "type": "address"
        },
        {
          "internalType": "address",
          "name": "callerAddress",
          "type": "address"
        },
        {
          "internalType": "uint256",
          "name": "ethPrice",
          "type": "uint256"
        }
      ],
      "stateMutability": "view",
      "type": "function",
      "constant": true
    },
    {
      "inputs": [
        {
          "internalType": "bytes32",
          "name": "role",
          "type": "bytes32"
        },
        {
          "internalType": "address",
          "name": "account",
          "type": "address"
        }
      ],
      "name": "revokeRole",
      "outputs": [],
      "stateMutability": "nonpayable",
      "type": "function"
    },
    {
      "inputs": [
        {
          "internalType": "bytes4",
          "name": "interfaceId",
          "type": "bytes4"
        }
      ],
      "name": "supportsInterface",
      "outputs": [
        {
          "internalType": "bool",
          "name": "",
          "type": "bool"
        }
      ],
      "stateMutability": "view",
      "type": "function",
      "constant": true
    },
    {
      "inputs": [
        {
          "internalType": "address",
          "name": "_oracle",
          "type": "address"
        }
      ],
      "name": "addOracle",
      "outputs": [],
      "stateMutability": "nonpayable",
      "type": "function"
    },
    {
      "inputs": [
        {
          "internalType": "address",
          "name": "_oracle",
          "type": "address"
        }
      ],
      "name": "removeOracle",
      "outputs": [],
      "stateMutability": "nonpayable",
      "type": "function"
    },
    {
      "inputs": [
        {
          "internalType": "uint256",
          "name": "_threshold",
          "type": "uint256"
        }
      ],
      "name": "setThreshold",
      "outputs": [],
      "stateMutability": "nonpayable",
      "type": "function"
    },
    {
      "inputs": [],
      "name": "getLatestEthPrice",
      "outputs": [
        {
          "internalType": "uint256",
          "name": "",
          "type": "uint256"
        }
      ],
      "stateMutability": "nonpayable",
      "type": "function"
    },
    {
      "inputs": [
        {
          "internalType": "uint256",
          "name": "_ethPrice",
          "type": "uint256"
        },
        {
          "internalType": "address",
          "name": "_callerAddress",
          "type": "address"
        },
        {
          "internalType": "uint256",
          "name": "_id",
          "type": "uint256"
        }
      ],
      "name": "setLatestEthPrice",
      "outputs": [],
      "stateMutability": "nonpayable",
      "type": "function"
    }
  ],
  "bytecode": "0x608060405260006001556103e8600255600060035560006004553480156200002657600080fd5b50604051620021cd380380620021cd83398181016040528101906200004c91906200033c565b6200009e7f68e79a7bf1e0bc45d0a330c573bc367f9cf464fd326078812f301165fbda4ef17fb19546dff01e856fb3f010c267a7b1c60363cf8a4664e21cc89c26224620214e620000d760201b60201c565b620000d07fb19546dff01e856fb3f010c267a7b1c60363cf8a4664e21cc89c26224620214e826200013a60201b60201c565b506200036e565b6000620000ea836200015060201b60201c565b905081600080858152602001908152602001600020600101819055508181847fbd79b86ffe0ab8e8776151514217cd7cacd52c909f66475c3af44e129f0b00ff60405160405180910390a4505050565b6200014c82826200016f60201b60201c565b5050565b6000806000838152602001908152602001600020600101549050919050565b6200018182826200026060201b60201c565b6200025c57600160008084815260200190815260200160002060000160008373ffffffffffffffffffffffffffffffffffffffff1673ffffffffffffffffffffffffffffffffffffffff16815260200190815260200160002060006101000a81548160ff02191690831515021790555062000201620002ca60201b60201c565b73ffffffffffffffffffffffffffffffffffffffff168173ffffffffffffffffffffffffffffffffffffffff16837f2f8788117e7eff1d82e926ec794901d17c78024a50270940304540a733656f0d60405160405180910390a45b5050565b600080600084815260200190815260200160002060000160008373ffffffffffffffffffffffffffffffffffffffff1673ffffffffffffffffffffffffffffffffffffffff16815260200190815260200160002060009054906101000a900460ff16905092915050565b600033905090565b600080fd5b600073ffffffffffffffffffffffffffffffffffffffff82169050919050565b60006200030482620002d7565b9050919050565b6200031681620002f7565b81146200032257600080fd5b50565b60008151905062000336816200030b565b92915050565b600060208284031215620003555762000354620002d2565b5b6000620003658482850162000325565b91505092915050565b611e4f806200037e6000396000f3fe608060405234801561001057600080fd5b50600436106100f55760003560e01c806391d1485411610097578063d547741f11610066578063d547741f14610286578063df5dd1a5146102a2578063e58378bb146102be578063fdc85fc4146102dc576100f5565b806391d1485414610200578063960bfe0414610230578063a217fddf1461024c578063cf642f1f1461026a576100f5565b80632f2ff15d116100d35780632f2ff15d1461017857806330c0b9ec1461019457806336568abe146101b25780638bbc085a146101ce576100f5565b806301ffc9a7146100fa57806307e2cea51461012a578063248a9ca314610148575b600080fd5b610114600480360381019061010f91906112de565b6102f8565b6040516101219190611326565b60405180910390f35b610132610372565b60405161013f919061135a565b60405180910390f35b610162600480360381019061015d91906113a1565b610396565b60405161016f919061135a565b60405180910390f35b610192600480360381019061018d919061142c565b6103b5565b005b61019c6103de565b6040516101a99190611485565b60405180910390f35b6101cc60048036038101906101c7919061142c565b6104a5565b005b6101e860048036038101906101e391906114cc565b610528565b6040516101f79392919061151b565b60405180910390f35b61021a6004803603810190610215919061142c565b6105af565b6040516102279190611326565b60405180910390f35b61024a60048036038101906102459190611552565b610619565b005b61025461068f565b604051610261919061135a565b60405180910390f35b610284600480360381019061027f919061157f565b610696565b005b6102a0600480360381019061029b919061142c565b6109e7565b005b6102bc60048036038101906102b791906115d2565b610a10565b005b6102c6610b29565b6040516102d3919061135a565b60405180910390f35b6102f660048036038101906102f191906115d2565b610b4d565b005b60007f7965db0b000000000000000000000000000000000000000000000000000000007bffffffffffffffffffffffffffffffffffffffffffffffffffffffff1916827bffffffffffffffffffffffffffffffffffffffffffffffffffffffff1916148061036b575061036a82610caa565b5b9050919050565b7f68e79a7bf1e0bc45d0a330c573bc367f9cf464fd326078812f301165fbda4ef181565b6000806000838152602001908152602001600020600101549050919050565b6103be82610396565b6103cf816103ca610d14565b610d1c565b6103d98383610db9565b505050565b6000600160008154809291906103f39061162e565b919050555060006002544233600154604051602001610414939291906116e0565b6040516020818303038152906040528051906020012060001c610437919061174c565b905060016005600083815260200190815260200160002060006101000a81548160ff0219169083151502179055507f3d50a0c24e97813f35595d2f1f37dbf421d5e97f37abd4e222853e9b9c82c8d5338260405161049692919061177d565b60405180910390a18091505090565b6104ad610d14565b73ffffffffffffffffffffffffffffffffffffffff168173ffffffffffffffffffffffffffffffffffffffff161461051a576040517f08c379a000000000000000000000000000000000000000000000000000000000815260040161051190611829565b60405180910390fd5b6105248282610e99565b5050565b6006602052816000526040600020818154811061054457600080fd5b9060005260206000209060030201600091509150508060000160009054906101000a900473ffffffffffffffffffffffffffffffffffffffff16908060010160009054906101000a900473ffffffffffffffffffffffffffffffffffffffff16908060020154905083565b600080600084815260200190815260200160002060000160008373ffffffffffffffffffffffffffffffffffffffff1673ffffffffffffffffffffffffffffffffffffffff16815260200190815260200160002060009054906101000a900460ff16905092915050565b7fb19546dff01e856fb3f010c267a7b1c60363cf8a4664e21cc89c26224620214e61064b81610646610d14565b610d1c565b816004819055507f0f4f9dbb729778e455b47da600927c51653092f52835705824cd1db65a29ed0d6004546040516106839190611485565b60405180910390a15050565b6000801b81565b7f68e79a7bf1e0bc45d0a330c573bc367f9cf464fd326078812f301165fbda4ef16106c8816106c3610d14565b610d1c565b6005600083815260200190815260200160002060009054906101000a900460ff16610728576040517f08c379a000000000000000000000000000000000000000000000000000000000815260040161071f906118bb565b60405180910390fd5b600060405180606001604052803373ffffffffffffffffffffffffffffffffffffffff1681526020018573ffffffffffffffffffffffffffffffffffffffff1681526020018681525090506006600084815260200190815260200160002081908060018154018082558091505060019003906000526020600020906003020160009091909190915060008201518160000160006101000a81548173ffffffffffffffffffffffffffffffffffffffff021916908373ffffffffffffffffffffffffffffffffffffffff16021790555060208201518160010160006101000a81548173ffffffffffffffffffffffffffffffffffffffff021916908373ffffffffffffffffffffffffffffffffffffffff1602179055506040820151816002015550506000600660008581526020019081526020016000208054905090506004548114156109df576000805b828110156108d9576108c46006600088815260200190815260200160002082815481106108a3576108a26118db565b5b90600052602060002090600302016002015483610f7a90919063ffffffff16565b915080806108d19061162e565b915050610873565b506108ed8282610f9090919063ffffffff16565b90506005600086815260200190815260200160002060006101000a81549060ff021916905560066000868152602001908152602001600020600061093191906111f0565b60008690508073ffffffffffffffffffffffffffffffffffffffff1663b5d73ba483886040518363ffffffff1660e01b815260040161097192919061190a565b600060405180830381600087803b15801561098b57600080fd5b505af115801561099f573d6000803e3d6000fd5b505050507f91b860381268a473101de3379abbb70abf7ea6c9d1735cf58b9816479ff3b72782886040516109d4929190611933565b60405180910390a150505b505050505050565b6109f082610396565b610a01816109fc610d14565b610d1c565b610a0b8383610e99565b505050565b7fb19546dff01e856fb3f010c267a7b1c60363cf8a4664e21cc89c26224620214e610a4281610a3d610d14565b610d1c565b610a6c7f68e79a7bf1e0bc45d0a330c573bc367f9cf464fd326078812f301165fbda4ef1836105af565b15610aac576040517f08c379a0000000000000000000000000000000000000000000000000000000008152600401610aa3906119a8565b60405180910390fd5b610ad67f68e79a7bf1e0bc45d0a330c573bc367f9cf464fd326078812f301165fbda4ef183610fa6565b60036000815480929190610ae99061162e565b91905055507fed46b7525d27f2470ee188e1d85693a6a8b59537b58701408b2f53588e63d1db82604051610b1d91906119c8565b60405180910390a15050565b7fb19546dff01e856fb3f010c267a7b1c60363cf8a4664e21cc89c26224620214e81565b7fb19546dff01e856fb3f010c267a7b1c60363cf8a4664e21cc89c26224620214e610b7f81610b7a610d14565b610d1c565b610ba97f68e79a7bf1e0bc45d0a330c573bc367f9cf464fd326078812f301165fbda4ef1836105af565b610be8576040517f08c379a0000000000000000000000000000000000000000000000000000000008152600401610bdf90611a2f565b60405180910390fd5b600160035411610c2d576040517f08c379a0000000000000000000000000000000000000000000000000000000008152600401610c2490611a9b565b60405180910390fd5b610c577f68e79a7bf1e0bc45d0a330c573bc367f9cf464fd326078812f301165fbda4ef1836109e7565b60036000815480929190610c6a90611abb565b91905055507f8d35b822981364028d4bb40af1edcfd97f4e186c8ccf97bafcc9adc68bd58c6d82604051610c9e91906119c8565b60405180910390a15050565b60007f01ffc9a7000000000000000000000000000000000000000000000000000000007bffffffffffffffffffffffffffffffffffffffffffffffffffffffff1916827bffffffffffffffffffffffffffffffffffffffffffffffffffffffff1916149050919050565b600033905090565b610d2682826105af565b610db557610d4b8173ffffffffffffffffffffffffffffffffffffffff166014610fb4565b610d598360001c6020610fb4565b604051602001610d6a929190611bf7565b6040516020818303038152906040526040517f08c379a0000000000000000000000000000000000000000000000000000000008152600401610dac9190611c7b565b60405180910390fd5b5050565b610dc382826105af565b610e9557600160008084815260200190815260200160002060000160008373ffffffffffffffffffffffffffffffffffffffff1673ffffffffffffffffffffffffffffffffffffffff16815260200190815260200160002060006101000a81548160ff021916908315150217905550610e3a610d14565b73ffffffffffffffffffffffffffffffffffffffff168173ffffffffffffffffffffffffffffffffffffffff16837f2f8788117e7eff1d82e926ec794901d17c78024a50270940304540a733656f0d60405160405180910390a45b5050565b610ea382826105af565b15610f7657600080600084815260200190815260200160002060000160008373ffffffffffffffffffffffffffffffffffffffff1673ffffffffffffffffffffffffffffffffffffffff16815260200190815260200160002060006101000a81548160ff021916908315150217905550610f1b610d14565b73ffffffffffffffffffffffffffffffffffffffff168173ffffffffffffffffffffffffffffffffffffffff16837ff6391f5c32d9c69d2a47ea670b442974b53935d1edc7fd64eb21e047a839171b60405160405180910390a45b5050565b60008183610f889190611c9d565b905092915050565b60008183610f9e9190611cf3565b905092915050565b610fb08282610db9565b5050565b606060006002836002610fc79190611d24565b610fd19190611c9d565b67ffffffffffffffff811115610fea57610fe9611d7e565b5b6040519080825280601f01601f19166020018201604052801561101c5781602001600182028036833780820191505090505b5090507f300000000000000000000000000000000000000000000000000000000000000081600081518110611054576110536118db565b5b60200101907effffffffffffffffffffffffffffffffffffffffffffffffffffffffffffff1916908160001a9053507f7800000000000000000000000000000000000000000000000000000000000000816001815181106110b8576110b76118db565b5b60200101907effffffffffffffffffffffffffffffffffffffffffffffffffffffffffffff1916908160001a905350600060018460026110f89190611d24565b6111029190611c9d565b90505b60018111156111a2577f3031323334353637383961626364656600000000000000000000000000000000600f861660108110611144576111436118db565b5b1a60f81b82828151811061115b5761115a6118db565b5b60200101907effffffffffffffffffffffffffffffffffffffffffffffffffffffffffffff1916908160001a905350600485901c94508061119b90611abb565b9050611105565b50600084146111e6576040517f08c379a00000000000000000000000000000000000000000000000000000000081526004016111dd90611df9565b60405180910390fd5b8091505092915050565b50805460008255600302906000526020600020908101906112119190611214565b50565b5b8082111561127d57600080820160006101000a81549073ffffffffffffffffffffffffffffffffffffffff02191690556001820160006101000a81549073ffffffffffffffffffffffffffffffffffffffff0219169055600282016000905550600301611215565b5090565b600080fd5b60007fffffffff0000000000000000000000000000000000000000000000000000000082169050919050565b6112bb81611286565b81146112c657600080fd5b50565b6000813590506112d8816112b2565b92915050565b6000602082840312156112f4576112f3611281565b5b6000611302848285016112c9565b91505092915050565b60008115159050919050565b6113208161130b565b82525050565b600060208201905061133b6000830184611317565b92915050565b6000819050919050565b61135481611341565b82525050565b600060208201905061136f600083018461134b565b92915050565b61137e81611341565b811461138957600080fd5b50565b60008135905061139b81611375565b92915050565b6000602082840312156113b7576113b6611281565b5b60006113c58482850161138c565b91505092915050565b600073ffffffffffffffffffffffffffffffffffffffff82169050919050565b60006113f9826113ce565b9050919050565b611409816113ee565b811461141457600080fd5b50565b60008135905061142681611400565b92915050565b6000806040838503121561144357611442611281565b5b60006114518582860161138c565b925050602061146285828601611417565b9150509250929050565b6000819050919050565b61147f8161146c565b82525050565b600060208201905061149a6000830184611476565b92915050565b6114a98161146c565b81146114b457600080fd5b50565b6000813590506114c6816114a0565b92915050565b600080604083850312156114e3576114e2611281565b5b60006114f1858286016114b7565b9250506020611502858286016114b7565b9150509250929050565b611515816113ee565b82525050565b6000606082019050611530600083018661150c565b61153d602083018561150c565b61154a6040830184611476565b949350505050565b60006020828403121561156857611567611281565b5b6000611576848285016114b7565b91505092915050565b60008060006060848603121561159857611597611281565b5b60006115a6868287016114b7565b93505060206115b786828701611417565b92505060406115c8868287016114b7565b9150509250925092565b6000602082840312156115e8576115e7611281565b5b60006115f684828501611417565b91505092915050565b7f4e487b7100000000000000000000000000000000000000000000000000000000600052601160045260246000fd5b60006116398261146c565b91507fffffffffffffffffffffffffffffffffffffffffffffffffffffffffffffffff82141561166c5761166b6115ff565b5b600182019050919050565b6000819050919050565b61169261168d8261146c565b611677565b82525050565b60008160601b9050919050565b60006116b082611698565b9050919050565b60006116c2826116a5565b9050919050565b6116da6116d5826113ee565b6116b7565b82525050565b60006116ec8286611681565b6020820191506116fc82856116c9565b60148201915061170c8284611681565b602082019150819050949350505050565b7f4e487b7100000000000000000000000000000000000000000000000000000000600052601260045260246000fd5b60006117578261146c565b91506117628361146c565b9250826117725761177161171d565b5b828206905092915050565b6000604082019050611792600083018561150c565b61179f6020830184611476565b9392505050565b600082825260208201905092915050565b7f416363657373436f6e74726f6c3a2063616e206f6e6c792072656e6f756e636560008201527f20726f6c657320666f722073656c660000000000000000000000000000000000602082015250565b6000611813602f836117a6565b915061181e826117b7565b604082019050919050565b6000602082019050818103600083015261184281611806565b9050919050565b7f546869732072657175657374206973206e6f7420696e206d792070656e64696e60008201527f67206c6973742e00000000000000000000000000000000000000000000000000602082015250565b60006118a56027836117a6565b91506118b082611849565b604082019050919050565b600060208201905081810360008301526118d481611898565b9050919050565b7f4e487b7100000000000000000000000000000000000000000000000000000000600052603260045260246000fd5b600060408201905061191f6000830185611476565b61192c6020830184611476565b9392505050565b60006040820190506119486000830185611476565b611955602083018461150c565b9392505050565b7f416c726561647920616e206f7261636c65210000000000000000000000000000600082015250565b60006119926012836117a6565b915061199d8261195c565b602082019050919050565b600060208201905081810360008301526119c181611985565b9050919050565b60006020820190506119dd600083018461150c565b92915050565b7f4e6f7420616e206f7261636c6521000000000000000000000000000000000000600082015250565b6000611a19600e836117a6565b9150611a24826119e3565b602082019050919050565b60006020820190508181036000830152611a4881611a0c565b9050919050565b7f446f206e6f742072656d6f766520746865206c617374206f7261636c65210000600082015250565b6000611a85601e836117a6565b9150611a9082611a4f565b602082019050919050565b60006020820190508181036000830152611ab481611a78565b9050919050565b6000611ac68261146c565b91506000821415611ada57611ad96115ff565b5b600182039050919050565b600081905092915050565b7f416363657373436f6e74726f6c3a206163636f756e7420000000000000000000600082015250565b6000611b26601783611ae5565b9150611b3182611af0565b601782019050919050565b600081519050919050565b60005b83811015611b65578082015181840152602081019050611b4a565b83811115611b74576000848401525b50505050565b6000611b8582611b3c565b611b8f8185611ae5565b9350611b9f818560208601611b47565b80840191505092915050565b7f206973206d697373696e6720726f6c6520000000000000000000000000000000600082015250565b6000611be1601183611ae5565b9150611bec82611bab565b601182019050919050565b6000611c0282611b19565b9150611c0e8285611b7a565b9150611c1982611bd4565b9150611c258284611b7a565b91508190509392505050565b6000601f19601f8301169050919050565b6000611c4d82611b3c565b611c5781856117a6565b9350611c67818560208601611b47565b611c7081611c31565b840191505092915050565b60006020820190508181036000830152611c958184611c42565b905092915050565b6000611ca88261146c565b9150611cb38361146c565b9250827fffffffffffffffffffffffffffffffffffffffffffffffffffffffffffffffff03821115611ce857611ce76115ff565b5b828201905092915050565b6000611cfe8261146c565b9150611d098361146c565b925082611d1957611d1861171d565b5b828204905092915050565b6000611d2f8261146c565b9150611d3a8361146c565b9250817fffffffffffffffffffffffffffffffffffffffffffffffffffffffffffffffff0483118215151615611d7357611d726115ff565b5b828202905092915050565b7f4e487b7100000000000000000000000000000000000000000000000000000000600052604160045260246000fd5b7f537472696e67733a20686578206c656e67746820696e73756666696369656e74600082015250565b6000611de36020836117a6565b9150611dee82611dad565b602082019050919050565b60006020820190508181036000830152611e1281611dd6565b905091905056fea2646970667358221220588f3e1a7c909fd6bdb552a12c1e875b7b67572d705263f1e6a1ebae631e1ff464736f6c63430008090033",
  "immutableReferences": {},
  "source": "// SPDX-License-Identifier: MIT\r\n\r\npragma solidity ^0.8.0;\r\n\r\nimport \"openzeppelin-solidity/contracts/access/AccessControl.sol\";\r\nimport \"openzeppelin-solidity/contracts/utils/math/SafeMath.sol\";\r\nimport \"./CallerContractInterface.sol\";\r\n\r\ncontract EthPriceOracle is AccessControl {\r\n    using SafeMath for uint256;\r\n\r\n    bytes32 public constant ORACLE_ROLE = keccak256(\"ORACLE_ROLE\");\r\n    bytes32 public constant OWNER_ROLE = keccak256(\"OWNER_ROLE\");\r\n\r\n    uint256 private randNonce = 0;\r\n    uint256 private modulus = 1000;\r\n    uint256 private numOracles = 0;\r\n    uint256 private THRESHOLD = 0;\r\n\r\n    struct Response {\r\n        address oracleAddress;\r\n        address callerAddress;\r\n        uint256 ethPrice;\r\n    }\r\n\r\n    mapping(uint256 => bool) pendingRequests;\r\n    mapping(uint256 => Response[]) public requestIdToResponse;\r\n\r\n    event GetLatestEthPriceEvent(address callerAddress, uint256 id);\r\n    event SetLatestEthPriceEvent(uint256 ethPrice, address callerAddress);\r\n    event AddOracleEvent(address oracleAddress);\r\n    event RemoveOracleEvent(address oracleAddress);\r\n    event SetThresholdEvent(uint256 threshold);\r\n\r\n    constructor(address _owner) {\r\n        _setRoleAdmin(ORACLE_ROLE, OWNER_ROLE);\r\n        _setupRole(OWNER_ROLE, _owner);\r\n    }\r\n\r\n    function addOracle(address _oracle) public onlyRole(OWNER_ROLE) {\r\n        require(!hasRole(ORACLE_ROLE, _oracle), \"Already an oracle!\");\r\n        _setupRole(ORACLE_ROLE, _oracle);\r\n        numOracles++;\r\n        emit AddOracleEvent(_oracle);\r\n    }\r\n\r\n    function removeOracle(address _oracle) public onlyRole(OWNER_ROLE) {\r\n        require(hasRole(ORACLE_ROLE, _oracle), \"Not an oracle!\");\r\n        require(numOracles > 1, \"Do not remove the last oracle!\");\r\n        revokeRole(ORACLE_ROLE, _oracle);\r\n        numOracles--;\r\n        emit RemoveOracleEvent(_oracle);\r\n    }\r\n\r\n    function setThreshold(uint256 _threshold) public onlyRole(OWNER_ROLE) {\r\n        THRESHOLD = _threshold;\r\n        emit SetThresholdEvent(THRESHOLD);\r\n    }\r\n\r\n    function getLatestEthPrice() public returns (uint256) {\r\n        randNonce++;\r\n        uint256 id = uint256(\r\n            keccak256(abi.encodePacked(block.timestamp, msg.sender, randNonce))\r\n        ) % modulus;\r\n        pendingRequests[id] = true;\r\n        emit GetLatestEthPriceEvent(msg.sender, id);\r\n        return id;\r\n    }\r\n\r\n    function setLatestEthPrice(\r\n        uint256 _ethPrice,\r\n        address _callerAddress,\r\n        uint256 _id\r\n    ) public onlyRole(ORACLE_ROLE) {\r\n        require(\r\n            pendingRequests[_id],\r\n            \"This request is not in my pending list.\"\r\n        );\r\n\r\n        Response memory resp = Response(msg.sender, _callerAddress, _ethPrice);\r\n        requestIdToResponse[_id].push(resp);\r\n\r\n        uint256 numResponses = requestIdToResponse[_id].length;\r\n\r\n        if (numResponses == THRESHOLD) {\r\n            uint256 computedEthPrice = 0;\r\n\r\n            for (uint256 f = 0; f < numResponses; f++) {\r\n                computedEthPrice = computedEthPrice.add(\r\n                    requestIdToResponse[_id][f].ethPrice\r\n                );\r\n            }\r\n\r\n            computedEthPrice = computedEthPrice.div(numResponses);\r\n\r\n            delete pendingRequests[_id];\r\n            delete requestIdToResponse[_id];\r\n\r\n            CallerContractInterface callerContractInstance;\r\n            callerContractInstance = CallerContractInterface(_callerAddress);\r\n            callerContractInstance.callback(computedEthPrice, _id);\r\n            emit SetLatestEthPriceEvent(computedEthPrice, _callerAddress);\r\n        }\r\n    }\r\n}\r\n",
  "sourcePath": "C:\\Users\\Nico\\Projects\\eth\\eth-price-oracle\\oracle\\contracts\\EthPriceOracle.sol",
  "compiler": {
    "name": "solc",
    "version": "0.8.9+commit.e5eed63a.Emscripten.clang"
  },
  "schemaVersion": "3.4.3",
  "updatedAt": "2021-10-16T19:20:51.275Z",
  "networkType": "ethereum",
  "devdoc": {
    "kind": "dev",
    "methods": {
      "getRoleAdmin(bytes32)": {
        "details": "Returns the admin role that controls `role`. See {grantRole} and {revokeRole}. To change a role's admin, use {_setRoleAdmin}."
      },
      "grantRole(bytes32,address)": {
        "details": "Grants `role` to `account`. If `account` had not been already granted `role`, emits a {RoleGranted} event. Requirements: - the caller must have ``role``'s admin role."
      },
      "hasRole(bytes32,address)": {
        "details": "Returns `true` if `account` has been granted `role`."
      },
      "renounceRole(bytes32,address)": {
        "details": "Revokes `role` from the calling account. Roles are often managed via {grantRole} and {revokeRole}: this function's purpose is to provide a mechanism for accounts to lose their privileges if they are compromised (such as when a trusted device is misplaced). If the calling account had been granted `role`, emits a {RoleRevoked} event. Requirements: - the caller must be `account`."
      },
      "revokeRole(bytes32,address)": {
        "details": "Revokes `role` from `account`. If `account` had been granted `role`, emits a {RoleRevoked} event. Requirements: - the caller must have ``role``'s admin role."
      },
      "supportsInterface(bytes4)": {
        "details": "See {IERC165-supportsInterface}."
      }
    },
    "version": 1
  },
  "userdoc": {
    "kind": "user",
    "methods": {},
    "version": 1
  }
}